{
  "_format": "hh-sol-artifact-1",
  "contractName": "Swap",
  "sourceName": "contracts/Swap.sol",
  "abi": [
    {
      "inputs": [],
      "name": "DAI",
      "outputs": [
        {
          "internalType": "address",
          "name": "",
          "type": "address"
        }
      ],
      "stateMutability": "view",
      "type": "function"
    },
    {
      "inputs": [],
      "name": "USDC",
      "outputs": [
        {
          "internalType": "address",
          "name": "",
          "type": "address"
        }
      ],
      "stateMutability": "view",
      "type": "function"
    },
    {
      "inputs": [],
      "name": "WETH9",
      "outputs": [
        {
          "internalType": "address",
          "name": "",
          "type": "address"
        }
      ],
      "stateMutability": "view",
      "type": "function"
    },
    {
      "inputs": [],
      "name": "poolFee",
      "outputs": [
        {
          "internalType": "uint24",
          "name": "",
          "type": "uint24"
        }
      ],
      "stateMutability": "view",
      "type": "function"
    },
    {
      "inputs": [
        {
          "internalType": "uint256",
          "name": "amountIn",
          "type": "uint256"
        }
      ],
      "name": "swapExactInputSingle",
      "outputs": [
        {
          "internalType": "uint256",
          "name": "amountOut",
          "type": "uint256"
        }
      ],
      "stateMutability": "nonpayable",
      "type": "function"
    },
    {
      "inputs": [
        {
          "internalType": "uint256",
          "name": "amountOut",
          "type": "uint256"
        },
        {
          "internalType": "uint256",
          "name": "amountInMaximum",
          "type": "uint256"
        }
      ],
      "name": "swapExactOutputSingle",
      "outputs": [
        {
          "internalType": "uint256",
          "name": "amountIn",
          "type": "uint256"
        }
      ],
      "stateMutability": "nonpayable",
      "type": "function"
    },
    {
      "inputs": [],
      "name": "swapRouter",
      "outputs": [
        {
          "internalType": "contract ISwapRouter",
          "name": "",
          "type": "address"
        }
      ],
      "stateMutability": "view",
      "type": "function"
    }
  ],
  "bytecode": "0x608060405234801561001057600080fd5b50610fb8806100206000396000f3fe608060405234801561001057600080fd5b506004361061007d5760003560e01c806389a302711161005b57806389a30271146100ee578063c31c9c071461010c578063c4b69a181461012a578063e0bab4c41461015a5761007d565b8063089fe6aa146100825780634aa4a4fc146100a057806373bd43ad146100be575b600080fd5b61008a610178565b6040516100979190610ec6565b60405180910390f35b6100a861017e565b6040516100b59190610e58565b60405180910390f35b6100d860048036038101906100d39190610c0e565b610196565b6040516100e59190610ee1565b60405180910390f35b6100f6610359565b6040516101039190610e58565b60405180910390f35b610114610371565b6040516101219190610e73565b60405180910390f35b610144600480360381019061013f9190610c60565b610389565b6040516101519190610ee1565b60405180910390f35b6101626105aa565b60405161016f9190610e58565b60405180910390f35b610bb881565b73c02aaa39b223fe8d0a0e5c4f27ead9083c756cc281565b60006101b873c02aaa39b223fe8d0a0e5c4f27ead9083c756cc23330856105c2565b6101eb73c02aaa39b223fe8d0a0e5c4f27ead9083c756cc273e592427a0aece92de3edee1f18e0157c05861564846107e2565b600060405180610100016040528073c02aaa39b223fe8d0a0e5c4f27ead9083c756cc273ffffffffffffffffffffffffffffffffffffffff168152602001736b175474e89094c44da98b954eedeac495271d0f73ffffffffffffffffffffffffffffffffffffffff168152602001610bb862ffffff1681526020013373ffffffffffffffffffffffffffffffffffffffff16815260200142815260200184815260200160008152602001600073ffffffffffffffffffffffffffffffffffffffff16815250905073e592427a0aece92de3edee1f18e0157c0586156473ffffffffffffffffffffffffffffffffffffffff1663414bf389826040518263ffffffff1660e01b81526004016102ff9190610e8e565b602060405180830381600087803b15801561031957600080fd5b505af115801561032d573d6000803e3d6000fd5b505050506040513d601f19601f820116820180604052508101906103519190610c37565b915050919050565b73a0b86991c6218b36c1d19d4a2e9eb0ce3606eb4881565b73e592427a0aece92de3edee1f18e0157c0586156481565b60006103ab73c02aaa39b223fe8d0a0e5c4f27ead9083c756cc23330856105c2565b6103de73c02aaa39b223fe8d0a0e5c4f27ead9083c756cc273e592427a0aece92de3edee1f18e0157c05861564846107e2565b600060405180610100016040528073c02aaa39b223fe8d0a0e5c4f27ead9083c756cc273ffffffffffffffffffffffffffffffffffffffff168152602001736b175474e89094c44da98b954eedeac495271d0f73ffffffffffffffffffffffffffffffffffffffff168152602001610bb862ffffff1681526020013373ffffffffffffffffffffffffffffffffffffffff168152602001428152602001858152602001848152602001600073ffffffffffffffffffffffffffffffffffffffff16815250905073e592427a0aece92de3edee1f18e0157c0586156473ffffffffffffffffffffffffffffffffffffffff1663db3e2198826040518263ffffffff1660e01b81526004016104f19190610eaa565b602060405180830381600087803b15801561050b57600080fd5b505af115801561051f573d6000803e3d6000fd5b505050506040513d601f19601f820116820180604052508101906105439190610c37565b9150828210156105a35761058173c02aaa39b223fe8d0a0e5c4f27ead9083c756cc273e592427a0aece92de3edee1f18e0157c0586156460006107e2565b6105a273c02aaa39b223fe8d0a0e5c4f27ead9083c756cc2338486036109e3565b5b5092915050565b736b175474e89094c44da98b954eedeac495271d0f81565b6000808573ffffffffffffffffffffffffffffffffffffffff166323b872dd60e01b868686604051602401808473ffffffffffffffffffffffffffffffffffffffff1681526020018373ffffffffffffffffffffffffffffffffffffffff1681526020018281526020019350505050604051602081830303815290604052907bffffffffffffffffffffffffffffffffffffffffffffffffffffffff19166020820180517bffffffffffffffffffffffffffffffffffffffffffffffffffffffff83818316178352505050506040518082805190602001908083835b602083106106c1578051825260208201915060208101905060208303925061069e565b6001836020036101000a0380198251168184511680821785525050505050509050019150506000604051808303816000865af19150503d8060008114610723576040519150601f19603f3d011682016040523d82523d6000602084013e610728565b606091505b50915091508180156107685750600081511480610767575080806020019051602081101561075557600080fd5b81019080805190602001909291905050505b5b6107da576040517f08c379a00000000000000000000000000000000000000000000000000000000081526004018080602001828103825260038152602001807f535446000000000000000000000000000000000000000000000000000000000081525060200191505060405180910390fd5b505050505050565b6000808473ffffffffffffffffffffffffffffffffffffffff1663095ea7b360e01b8585604051602401808373ffffffffffffffffffffffffffffffffffffffff16815260200182815260200192505050604051602081830303815290604052907bffffffffffffffffffffffffffffffffffffffffffffffffffffffff19166020820180517bffffffffffffffffffffffffffffffffffffffffffffffffffffffff83818316178352505050506040518082805190602001908083835b602083106108c357805182526020820191506020810190506020830392506108a0565b6001836020036101000a0380198251168184511680821785525050505050509050019150506000604051808303816000865af19150503d8060008114610925576040519150601f19603f3d011682016040523d82523d6000602084013e61092a565b606091505b509150915081801561096a5750600081511480610969575080806020019051602081101561095757600080fd5b81019080805190602001909291905050505b5b6109dc576040517f08c379a00000000000000000000000000000000000000000000000000000000081526004018080602001828103825260028152602001807f534100000000000000000000000000000000000000000000000000000000000081525060200191505060405180910390fd5b5050505050565b6000808473ffffffffffffffffffffffffffffffffffffffff1663a9059cbb60e01b8585604051602401808373ffffffffffffffffffffffffffffffffffffffff16815260200182815260200192505050604051602081830303815290604052907bffffffffffffffffffffffffffffffffffffffffffffffffffffffff19166020820180517bffffffffffffffffffffffffffffffffffffffffffffffffffffffff83818316178352505050506040518082805190602001908083835b60208310610ac45780518252602082019150602081019050602083039250610aa1565b6001836020036101000a0380198251168184511680821785525050505050509050019150506000604051808303816000865af19150503d8060008114610b26576040519150601f19603f3d011682016040523d82523d6000602084013e610b2b565b606091505b5091509150818015610b6b5750600081511480610b6a5750808060200190516020811015610b5857600080fd5b81019080805190602001909291905050505b5b610bdd576040517f08c379a00000000000000000000000000000000000000000000000000000000081526004018080602001828103825260028152602001807f535400000000000000000000000000000000000000000000000000000000000081525060200191505060405180910390fd5b5050505050565b600081359050610bf381610f6b565b92915050565b600081519050610c0881610f6b565b92915050565b600060208284031215610c2057600080fd5b6000610c2e84828501610be4565b91505092915050565b600060208284031215610c4957600080fd5b6000610c5784828501610bf9565b91505092915050565b60008060408385031215610c7357600080fd5b6000610c8185828601610be4565b9250506020610c9285828601610be4565b9150509250929050565b610ca581610efc565b82525050565b610cb481610efc565b82525050565b610cc381610f47565b82525050565b61010082016000820151610ce06000850182610c9c565b506020820151610cf36020850182610c9c565b506040820151610d066040850182610e1c565b506060820151610d196060850182610c9c565b506080820151610d2c6080850182610e3a565b5060a0820151610d3f60a0850182610e3a565b5060c0820151610d5260c0850182610e3a565b5060e0820151610d6560e0850182610e0d565b50505050565b61010082016000820151610d826000850182610c9c565b506020820151610d956020850182610c9c565b506040820151610da86040850182610e1c565b506060820151610dbb6060850182610c9c565b506080820151610dce6080850182610e3a565b5060a0820151610de160a0850182610e3a565b5060c0820151610df460c0850182610e3a565b5060e0820151610e0760e0850182610e0d565b50505050565b610e1681610f0e565b82525050565b610e2581610f2e565b82525050565b610e3481610f2e565b82525050565b610e4381610f3d565b82525050565b610e5281610f3d565b82525050565b6000602082019050610e6d6000830184610cab565b92915050565b6000602082019050610e886000830184610cba565b92915050565b600061010082019050610ea46000830184610cc9565b92915050565b600061010082019050610ec06000830184610d6b565b92915050565b6000602082019050610edb6000830184610e2b565b92915050565b6000602082019050610ef66000830184610e49565b92915050565b6000610f0782610f0e565b9050919050565b600073ffffffffffffffffffffffffffffffffffffffff82169050919050565b600062ffffff82169050919050565b6000819050919050565b6000610f5282610f59565b9050919050565b6000610f6482610f0e565b9050919050565b610f7481610f3d565b8114610f7f57600080fd5b5056fea2646970667358221220fe5752c5ae0c7219217e51694f28de7f26fa8f2853965dd4810c32640e28650f64736f6c63430007060033",
  "linkReferences": {},
  "deployedLinkReferences": {}
}